{
  "contractName": "LshContract",
  "abi": [
    {
      "inputs": [
        {
          "internalType": "uint256",
          "name": "_studentId",
          "type": "uint256"
        },
        {
          "internalType": "bytes32",
          "name": "_name",
          "type": "bytes32"
        },
        {
          "internalType": "bytes32",
          "name": "_gender",
          "type": "bytes32"
        },
        {
          "internalType": "uint256",
          "name": "_age",
          "type": "uint256"
        }
      ],
      "name": "setStudentInfo",
      "outputs": [],
      "stateMutability": "nonpayable",
      "type": "function"
    },
    {
      "inputs": [
        {
          "internalType": "uint256",
          "name": "_studentId",
          "type": "uint256"
        }
      ],
      "name": "getStudentInfo",
      "outputs": [
        {
          "internalType": "bytes32",
          "name": "",
          "type": "bytes32"
        },
        {
          "internalType": "bytes32",
          "name": "",
          "type": "bytes32"
        },
        {
          "internalType": "uint256",
          "name": "",
          "type": "uint256"
        }
      ],
      "stateMutability": "view",
      "type": "function"
    }
  ],
  "bytecode": "0x608060405234801561000f575f80fd5b506102878061001d5f395ff3fe608060405234801561000f575f80fd5b5060043610610034575f3560e01c806365a81d7d14610038578063763fa0911461006a575b5f80fd5b610052600480360381019061004d919061013c565b610086565b6040516100619392919061018e565b60405180910390f35b610084600480360381019061007f91906101ed565b6100d1565b005b5f805f805f8581526020019081526020015f205f01545f808681526020019081526020015f20600101545f808781526020019081526020015f20600201549250925092509193909250565b5f805f8681526020019081526020015f20905083815f01819055508281600101819055508181600201819055505050505050565b5f80fd5b5f819050919050565b61011b81610109565b8114610125575f80fd5b50565b5f8135905061013681610112565b92915050565b5f6020828403121561015157610150610105565b5b5f61015e84828501610128565b91505092915050565b5f819050919050565b61017981610167565b82525050565b61018881610109565b82525050565b5f6060820190506101a15f830186610170565b6101ae6020830185610170565b6101bb604083018461017f565b949350505050565b6101cc81610167565b81146101d6575f80fd5b50565b5f813590506101e7816101c3565b92915050565b5f805f806080858703121561020557610204610105565b5b5f61021287828801610128565b9450506020610223878288016101d9565b9350506040610234878288016101d9565b925050606061024587828801610128565b9150509295919450925056fea26469706673582212206a1f3f16b07c5eb0ff2684d6726df5ef04967ca3397a8bf34250716c078ae13464736f6c63430008140033",
  "immutableReferences": {},
  "source": "// SPDX-License-Identifier: MIT\r\npragma solidity ^0.8.17;\r\n\r\ncontract LshContract {\r\n    struct Student {\r\n        bytes32 name; // string \r\n        bytes32 gender;\r\n        uint age;\r\n    }\r\n\r\n    mapping(uint => Student) studentInfo;\r\n\r\n    function setStudentInfo(uint _studentId, bytes32 _name, bytes32 _gender, uint _age) public{\r\n        Student storage student = studentInfo[_studentId];\r\n        student.name = _name;\r\n        student.gender = _gender;\r\n        student.age = _age;\r\n    }\r\n\r\n    function getStudentInfo(uint _studentId) public view returns(bytes32, bytes32, uint){\r\n        return(studentInfo[_studentId].name,\r\n                studentInfo[_studentId].gender,\r\n                studentInfo[_studentId].age);\r\n    }\r\n}",
  "sourcePath": "C:\\Users\\LSH\\Desktop\\fullstack\\VScode\\14_Truffle\\contracts\\LshContract.sol",
  "compiler": {
    "name": "solc",
    "version": "0.8.20+commit.a1b79de6.Emscripten.clang"
  },
  "schemaVersion": "3.4.14",
  "updatedAt": "2023-07-06T01:39:06.582Z",
  "devdoc": {
    "kind": "dev",
    "methods": {},
    "version": 1
  },
  "userdoc": {
    "kind": "user",
    "methods": {},
    "version": 1
  }
}